:020000040800F2
:100000003008002089010008E5010008E50100082A
:10001000E5010008E5010008E50100080000000016
:10002000000000000000000000000000E5010008E2
:10003000E501000800000000E501000801060008D5
:10004000E5010008E5010008E5010008E5010008F8
:10005000E5010008E5010008E5010008E5010008E8
:10006000E5010008E5010008E5010008E5010008D8
:10007000E5010008E5010008E5010008E5010008C8
:10008000E5010008E5010008E5010008E5010008B8
:10009000E5010008E5010008E5010008E5010008A8
:1000A000E5010008E5010008E5010008E501000898
:1000B000E5010008E5010008E5010008E501000888
:1000C000E5010008E5010008E5010008E501000878
:1000D000E5010008E5010008E5010008E501000868
:1000E000E5010008E5010008E5010008E501000858
:1000F000E5010008E5010008E5010008E501000848
:10010000E5010008E5010008E5010008E501000837
:10011000E5010008E5010008E5010008E501000827
:10012000E5010008E5010008E5010008E501000817
:10013000E5010008E5010008E5010008E501000807
:10014000E5010008E5010008E5010008E5010008F7
:10015000E5010008E5010008E5010008E5010008E7
:10016000E5010008E5010008E5010008E5010008D7
:10017000E5010008E5010008E5010008E5010008C7
:10018000E5010008E501000880B582B000AF104B22
:100190007B60104B3B6007E03B681A1D3A607A6851
:1001A000111D796012681A603B680B4A9342F3D3C1
:1001B0000A480B494FF000028842B8BF40F8042BB0
:1001C000FADB00F013F800BF0837BD4680BD00BF62
:1001D000E0090008000000201400002014000020A6
:1001E0002C00002080B400AFFEE700BF80B500AF58
:1001F00000F0E0F9FEE700BF80B483B000AF7860A4
:100200000B46FB70FB78002B06D00949084B1A6B94
:100210007B6813430B6306E00549054B1A6B7B684B
:10022000DB4313400B6300BF0C37BD4680BC7047F7
:100230000038024080B487B000AF78603960002396
:100240007B6100233B610023FB6000237B6176E040
:1002500001227B6902FA03F33B613B681A683B6940
:100260001340FB60FA683B699A4265D17B681A6863
:100270007B695B00032101FA03F3DB431A407B68CF
:100280001A607B681A683B681B7919467B695B00BA
:1002900001FA03F31A437B681A603B681B79012B50
:1002A00003D03B681B79022B2ED17B689A687B694F
:1002B0005B00032101FA03F3DB431A407B689A6079
:1002C0007B689A683B685B7919467B695B0001FA39
:1002D00003F31A437B689A607B685A687B699BB218
:1002E000194601238B40DB431A407B685A607B68C8
:1002F0005B683A68927911467A6992B201FA02F221
:1003000092B21A437B685A607B68DA687B699BB259
:100310005B00032101FA03F3DB431A407B68DA60D8
:100320007B68DA683B68DB7919467B695B0001FA18
:1003300003F31A437B68DA607B6901337B617B6975
:100340000F2B85D900BF1C37BD4680BC704700BF4E
:1003500080B500AF124A124B1B6843F001031360D3
:100360000F4B00229A600E4A0D4B1B6823F08473DA
:1003700023F4803313600A4B0A4A5A60084A084B38
:100380001B6823F480231360054B0022DA6000F021
:100390000DF8054B4FF000629A6000BF80BD00BFB2
:1003A000003802401030002400ED00E080B483B03B
:1003B00000AF00237B6000233B60354A344B1B6851
:1003C00043F480331360324B1B6803F400333B600B
:1003D0007B6801337B603B68002B03D17B68B3F5FE
:1003E000A06FF0D12A4B1B6803F40033002B02D01E
:1003F00001233B6001E000233B603B68012B42D1BD
:10040000234A234B1B6C43F080531364214A214B36
:100410001B6843F4804313601D4A1D4B9B68936027
:100420001B4A1B4B9B6843F400439360184A184BCC
:100430009B6843F4A0539360154B174A5A60144AC3
:10044000134B1B6843F08073136000BF104B1B6895
:1004500003F00073002BF9D0104B40F205621A60D4
:100460000B4A0B4B9B6823F003039360084A084B2D
:100470009B6843F00203936000BF054B9B6803F049
:100480000C03082BF9D100BF0C37BD4680BC704768
:10049000003802400070004008544007003C024011
:1004A00080B483B000AF03463960FB7197F9073021
:1004B000002B0BDA0D49FB7903F00F03043B3A687C
:1004C000D2B21201D2B20B441A7609E0084997F968
:1004D00007303A68D2B21201D2B20B4483F800233B
:1004E00000BF0C37BD4680BC704700BF00ED00E088
:1004F00000E100E080B582B000AF78607B68B3F1C6
:10050000807F01D3012311E00A4A7B6823F07F43F7
:10051000013B53600F214FF0FF30FFF7C1FF054B48
:1005200000229A60034B07221A60002318460837FE
:10053000BD4680BD10E000E080B582B000AF012173
:100540001820FFF759FE01233B7100237B71002324
:10055000BB710023FB714FF6FF733B603B461946AE
:100560001248FFF767FE4FF475433B603B46194660
:100570000F48FFF75FFE0E4B4FF480725A83002343
:100580003B7102237B710223FB714FF420633B60BC
:100590003B4619460648FFF74DFE054B4FF4806277
:1005A0005A8300BF0837BD4680BD00BF001002401F
:1005B000000C024080B500AFFFF7CAFE0C4B0022D2
:1005C0001A600C4B4FF000421A6000BF0A4B1B68C8
:1005D0000A4AA2FB03239B0B1846FFF78BFF034637
:1005E000002BF3D1FFF7A8FF00F058F800BF80BD43
:1005F00014000020180000200000002031C351A189
:1006000080B500AF064B1B680133054A1360054BEC
:100610001B680133034A136000F06CF800BF80BD13
:10062000140000201800002080B485B000AF78606E
:10063000104B1A68104B1B689A420BD20D4B1A686C
:100640007B681344FB6000BF0A4B1A68FB689A4240
:10065000FAD30AE0084B1A687B681344FB6000BFBA
:10066000054B1A68FB689A42FAD300BF1437BD469F
:1006700080BC7047140000201800002080B582B0B4
:1006800000AF78607B681A2202FB03F31846FFF77D
:10069000CBFF00BF0837BD4680BD00BF80B500AFAF
:1006A0000F4B4FF480525A830D4B4FF400521A8374
:1006B0000B4B4FF480421A83094B4FF400421A83CC
:1006C0006420FFF7DBFF074B4FF6FF725A61064BC2
:1006D00000221A70054B1B68054A136000BF80BDDD
:1006E000000C0240001002402700002014000020EF
:1006F0001C00002080B500AF8E4B1B780C2B00F245
:10070000178101A252F823F03D070008990700085D
:10071000C5070008DD0700080908000821080008CF
:100720004D0800086508000891080008A90800089D
:10073000D5080008ED080008190900087E4B1B7851
:10074000002B14D07D4B1B68002B03DB794B01225F
:100750001A70EDE0774B07221A70774B00221A705F
:10076000774B1B6803F10043754A1360E0E0754B5B
:100770001B68002B03DB6F4B07221A70D8E06D4B10
:1007800001221A706C4B01221A706D4B1B6803F129
:1007900000436B4A1360CBE0684B1A68684B1B68D8
:1007A0009A420CD9684B4FF400425A83614B0222A3
:1007B0001A70634B1B686333614A1360B8E000F042
:1007C000CDF8B5E0614B624A12885A615E4B4FF436
:1007D00000521A83574B03221A70A9E0574B1A682C
:1007E000574B1B689A420CD9574B4FF400525A830F
:1007F000504B04221A70524B1B686333504A1360EB
:1008000096E000F0ABF893E0504B524A12885A61E0
:100810004D4B4FF480421A83464B05221A7087E0F5
:10082000464B1A68464B1B689A420CD9464B4FF40C
:1008300080425A833F4B06221A70414B1B68633338
:100840003F4A136074E000F089F871E03F4B424A80
:1008500012885A613C4B4FF400421A83354B0022F8
:100860001A7065E0374B1A68354B1B689A420CD9F1
:10087000354B4FF400425A832E4B08221A70304BEE
:100880001B6863332E4A136052E000F067F84FE0B4
:100890002E4B2F4A12885A612B4B4FF400521A8369
:1008A000244B09221A7043E0264B1A68244B1B681C
:1008B0009A420CD9244B4FF400525A831D4B0A2202
:1008C0001A701F4B1B6863331D4A136030E000F041
:1008D00045F82DE01D4B1F4A12885A611A4B4FF400
:1008E00080421A83134B0B221A7021E0154B1A68B1
:1008F000134B1B689A420CD9134B4FF480425A8316
:100900000C4B0C221A700E4B1B6863330C4A13609D
:100910000EE000F023F80BE00C4B0F4A12885A61EE
:10092000094B4FF400421A83024B00221A7000BF99
:1009300000BF80BD270000202600002014000020FA
:100940001C00002018000020000C02400010024093
:1009500020000020220000202400002080B400AFEE
:100960001C4B1B6903F40073002B0AD01A4B1B7835
:10097000312B06D8184B1B780133DAB2164B1A709C
:1009800009E0154B1B78002B05D0134B1B78013B5E
:10099000DAB2114B1A700F4B1B6903F40063002B82
:1009A0000AD00E4B1B78312B06D80C4B1B78013329
:1009B000DAB20A4B1A7009E0084B1B78002B05D0FD
:1009C000064B1B78013BDAB2044B1A7000BFBD46E0
:1009D00080BC7047000C0240290000202800002045
:1009E000007A030A00000000000000000102030476
:0409F00006070809E5
:0400000508000000EF
:00000001FF
