:020000040800F2
:1000000030080020A90100080502000805020008C8
:1000100005020008050200080502000800000000B3
:1000200000000000000000000000000005020008C1
:10003000050200080000000005020008A10D0008EC
:100040000502000805020008050200080502000874
:100050000502000805020008050200080502000864
:100060000502000805020008050200080502000854
:100070000502000805020008050200080502000844
:100080000502000805020008050200080502000834
:100090000502000805020008050200080502000824
:1000A0000502000805020008050200080502000814
:1000B0000502000805020008050200080502000804
:1000C00005020008050200080502000805020008F4
:1000D00005020008050200080502000805020008E4
:1000E00005020008FD0F00080502000805020008CF
:1000F00005020008050200080502000805020008C4
:1001000005020008050200080502000805020008B3
:1001100005020008050200080502000805020008A3
:100120000502000805020008050200080502000893
:100130000502000805020008050200080502000883
:100140000502000805020008050200080502000873
:100150000502000805020008050200080502000863
:100160000502000805020008050200080502000853
:100170000502000805020008050200080502000843
:10018000050200080502000880B483B000AF0346F2
:10019000FB71044AFB79136000BF0C37BD4680BC7D
:1001A000704700BF20000E4280B582B000AF104BF8
:1001B0007B60104B3B6007E03B681A1D3A607A6831
:1001C000111D796012681A603B680B4A9342F3D3A1
:1001D0000A480B494FF000028842B8BF40F8042B90
:1001E000FADB00F013F800BF0837BD4680BD00BF42
:1001F0005010000800000020180000201800002007
:100200002C00002080B400AFFEE700BF80B500AF37
:1002100000F076F900F07CFEFEE700BF80B483B00A
:1002200000AF0346FB710C4B00221A700A4B0022F0
:100230001A70FB79012B02D0042B04D007E0064B87
:1002400001221A7003E0044B05221A7000BF00BFA0
:100250000C37BD4680BC70477038024080B483B014
:1002600000AF0346FB71044AFB79136000BF0C37F3
:10027000BD4680BC704700BF800E474280B485B049
:1002800000AF78600023FB607B6803F44073B3F534
:10029000407F11D10F4B9B68FB60FB6823F4F81380
:1002A000FB607B6823F0704323F44073FA681343C8
:1002B000FB60084AFB6893600649064B1A6F7B682F
:1002C000C3F30B0313430B6700BF1437BD4680BC59
:1002D000704700BF0038024080B483B000AF0346CF
:1002E000FB71044AFB79136000BF0C37BD4680BC2C
:1002F000704700BF3C0E474280B483B000AF7860C7
:100300000B46FB70FB78002B06D00949084B1A6B93
:100310007B6813430B6306E00549054B1A6B7B684A
:10032000DB4313400B6300BF0C37BD4680BC7047F6
:100330000038024080B483B000AF78600B46FB7099
:10034000FB78002B06D00949084B1A6C7B681343D5
:100350000B6406E00549054B1A6C7B68DB431340D0
:100360000B6400BF0C37BD4680BC704700380240AC
:1003700080B487B000AF0346FB710023FB6000230D
:100380007B610023FB74FB795B09DBB2FB60FB68DC
:10039000012B03D1124B1B687B6109E0FB68022B28
:1003A00003D10F4B1B6F7B6102E00D4B5B6F7B61D9
:1003B000FB7903F01F03FB607A69FB6822FA03F301
:1003C00003F00103002B02D00123FB7401E00023A2
:1003D000FB74FB7C18461C37BD4680BC704700BFD1
:1003E0000038024080B487B000AF786039600023E5
:1003F0007B6100233B610023FB6000237B6176E08F
:1004000001227B6902FA03F33B613B681A683B698E
:100410001340FB60FA683B699A4265D17B681A68B1
:100420007B695B00032101FA03F3DB431A407B681D
:100430001A607B681A683B681B7919467B695B0008
:1004400001FA03F31A437B681A603B681B79012B9E
:1004500003D03B681B79022B2ED17B689A687B699D
:100460005B00032101FA03F3DB431A407B689A60C7
:100470007B689A683B685B7919467B695B0001FA87
:1004800003F31A437B689A607B685A687B699BB266
:10049000194601238B40DB431A407B685A607B6816
:1004A0005B683A68927911467A6992B201FA02F26F
:1004B00092B21A437B685A607B68DA687B699BB2A8
:1004C0005B00032101FA03F3DB431A407B68DA6027
:1004D0007B68DA683B68DB7919467B695B0001FA67
:1004E00003F31A437B68DA607B6901337B617B69C4
:1004F0000F2B85D900BF1C37BD4680BC704700BF9D
:1005000080B500AF124A124B1B6843F00103136021
:100510000F4B00229A600E4A0D4B1B6823F0847328
:1005200023F4803313600A4B0A4A5A60084A084B86
:100530001B6823F480231360054B0022DA6000F06F
:100540000DF8054B4FF000629A6000BF80BD00BF00
:10055000003802401030002400ED00E080B483B089
:1005600000AF00237B6000233B60354A344B1B689F
:1005700043F480331360324B1B6803F400333B6059
:100580007B6801337B603B68002B03D17B68B3F54C
:10059000A06FF0D12A4B1B6803F40033002B02D06C
:1005A00001233B6001E000233B603B68012B42D10B
:1005B000234A234B1B6C43F080531364214A214B85
:1005C0001B6843F4804313601D4A1D4B9B68936076
:1005D0001B4A1B4B9B6843F400439360184A184B1B
:1005E0009B6843F4A0539360154B174A5A60144A12
:1005F000134B1B6843F08073136000BF104B1B68E4
:1006000003F00073002BF9D0104B40F205621A6022
:100610000B4A0B4B9B6823F003039360084A084B7B
:100620009B6843F00203936000BF054B9B6803F097
:100630000C03082BF9D100BF0C37BD4680BC7047B6
:10064000003802400070004008544007003C02405F
:1006500080B485B000AF78600023FB60344BFB6052
:100660007B689B79002B4FD03149314B1A687B68EE
:100670001B68DB4313400B602D492D4B5A687B6888
:100680001B68DB4313404B607B681B791A46FB6891
:100690001344FB60FB68FA6811687A6812680A43C1
:1006A0001A602349224B9A687B681B68DB4313401E
:1006B0008B601F491E4BDA687B681B68DB43134065
:1006C000CB607B685B79102B0ED11949184B9A6867
:1006D0007B681B6813438B601549154BDA687B6890
:1006E0001B681343CB601DE0114BFB607B685B799B
:1006F0001A46FB681344FB60FB68FA6811687A6865
:1007000012680A431A600DE07B681B791A46FB6881
:100710001344FB60FB68FA6811687A681268D24378
:100720000A401A6000BF1437BD4680BC704700BF46
:10073000003C014080B483B000AF7860034A7B681E
:10074000536100BF0C37BD4680BC7047003C014080
:1007500080B483B000AF7860054A7B6843F0BF6324
:1007600043F40033D36000BF0C37BD4680BC7047F4
:1007700000ED00E080B485B000AF78600023FB732B
:100780000023BB730F237B737B68DB78002B38D08F
:10079000264BDB68DB4303F4E0631B0AFB73FB7B44
:1007A000C3F10403BB737A7BFB7B42FA03F37B73D5
:1007B0007B685B781A46BB7B02FA03F3FB737B68AA
:1007C0009A787B7B1340DAB2FB7B1343FB73FB7B92
:1007D0001B01FB73164A7B681B781344FA7B83F872
:1007E0000023134A7B681B785B09DBB218467B68E1
:1007F0001B7803F01F03012101FA03F342F82030B4
:100800000FE00B497B681B785B09DBB218467B68FD
:100810001B7803F01F0301229A4000F1200341F8E6
:10082000232000BF1437BD4680BC704700ED00E0B8
:1008300000E100E080B584B000AF78600023FB7376
:10084000194BCA225A62184B53225A6200F02EF8F2
:100850000346002B02D10023FB731CE0124A124B0B
:100860009B6823F0400393600F490F4B9A687B68A5
:100870001B6813438B600C4A7B689B6813610A49B1
:10088000094B1A697B685B681B0413430B6100F01A
:1008900045F80123FB73044BFF225A62FB7B184689
:1008A0001037BD4680BD00BF0028004080B485B031
:1008B00000AF00237B600023FB730023BB60164B5B
:1008C000DB6803F04003002B1ED1134B4FF0FF32C7
:1008D000DA60114BDB6803F04003BB607B680133D7
:1008E0007B607B68B3F5803F02D0BB68002BF0D003
:1008F000094BDB6803F04003002B02D00123FB739C
:1009000004E00023FB7301E00123FB73FB7B18462B
:100910001437BD4680BC70470028004080B400AF4B
:10092000044A044BDB6823F08003D36000BFBD465C
:1009300080BC70470028004080B485B000AF002321
:100940007B600023FB730023BB60174BCA225A62F3
:10095000154B53225A62144A134BDB6823F0A00351
:10096000D360114BDB6803F02003BB607B6801336D
:100970007B607B68B3F5003F02D0BB68002BF0D0F2
:10098000094BDB6803F02003002B02D00123FB732B
:1009900001E00023FB73044BFF225A62FB7B1846E5
:1009A0001437BD4680BC70470028004090B587B022
:1009B00000AFF860B9607A6000237B61FB68002BB0
:1009C00009D1474B9B6803F04003002B27D17B687C
:1009D0000022DA7023E0424B9B6803F04003002BB7
:1009E00007D07B681B78184600F048F903467B6106
:1009F00002E07B680022DA707B689B68002B07D1DD
:100A00007B681B7B184600F039F903467B6106E0E2
:100A10007B681B7B184600F031F903467B61FB685D
:100A2000002B19D07B681B781A047B685B781B024B
:100A300013437A6892781A437B68DB781B041A4365
:100A40007B681B7B1B061A437B689B681A437B6889
:100A50005B6813437B612BE07B681B78184600F0D2
:100A6000F1F803461C047B685B78184600F0EAF84E
:100A700003461B021C437B689B78184600F0E2F893
:100A8000034644EA03027B68DB781B0442EA030462
:100A90007B681B7B184600F0D5F803461B0644EA2A
:100AA00003027B689B681A437B685B6813437B6126
:100AB0000B4BCA225A620A4B53225A62BB68B3F5E7
:100AC000807F03D1064A7B69D36102E0044A7B69D7
:100AD0001362034BFF225A6200BF1C37BD4690BD14
:100AE0000028004080B487B000AF78600B46FB70F0
:100AF0000023FB6000233B610023FB751E4BCA22D1
:100B00005A621D4B53225A62FB78002B08D01A49B7
:100B1000194B9A687B6813438B600123FB7522E0B5
:100B20001549154B9A687B68DB4313408B60124B69
:100B3000DA687B681B0A13403B61FB680133FB608A
:100B4000FB68B3F5803F02D03B69002BEFD00A4B26
:100B5000DA687B681B0A1340002B02D10023FB7567
:100B600001E00123FB75044BFF225A62FB7D18460E
:100B70001C37BD4680BC70470028004080B487B059
:100B800000AFF860B9607A6000237B610E4BCA2227
:100B90005A620D4B53225A62BA687B6813437B61D9
:100BA000FB68B3F5807F03D1074A7B69536402E099
:100BB000054A7B699364044BFF225A6200BF1C37CD
:100BC000BD4680BC704700BF0028004080B483B0A1
:100BD00000AF78600B46FB70194BCA225A62184B63
:100BE00053225A62FB78002B10D01549144B9A6897
:100BF0007B6823F0040313438B601149104B1A6C7C
:100C00007B6803F0040313430B6411E00C490C4BA5
:100C10009A687B6823F00403DB4313408B60084928
:100C2000074B1A6C7B6803F00403DB4313400B642F
:100C3000034BFF225A6200BF0C37BD4680BC704791
:100C40000028004080B485B000AF0346FB7100234C
:100C5000FB7305E0FB7B0133FB73FB790A3BFB7104
:100C6000FB79092BF6D8FB7B1B01DAB2FB79134326
:100C7000DBB218461437BD4680BC704780B485B0DF
:100C800000AF0346FB710023FB73FB791B09DBB24A
:100C90001A46920013445B00FB73FB7903F00F03C9
:100CA000DAB2FB7B1344DBB218461437BD4680BC76
:100CB000704700BF80B483B000AF03463960FB715A
:100CC00097F90730002B0BDA0D49FB7903F00F037E
:100CD000043B3A68D2B21201D2B20B441A7609E050
:100CE000084997F907303A68D2B21201D2B20B44E0
:100CF00083F8002300BF0C37BD4680BC704700BF9F
:100D000000ED00E000E100E080B582B000AF786067
:100D10007B68B3F1807F01D3012311E00A4A7B682D
:100D200023F07F43013B53600F214FF0FF30FFF76B
:100D3000C1FF054B00229A60034B07221A60002373
:100D400018460837BD4680BD10E000E080B582B08F
:100D500000AF01211820FFF7CFFA01233B710023D8
:100D60007B710023BB710023FB7101233B603B4679
:100D700019460948FFF736FB00233B7102237B71BC
:100D80004FF400433B603B4619460448FFF72AFBFB
:100D900000BF0837BD4680BD00100240000C024075
:100DA00080B400AF064B1B680133054A1360054B46
:100DB0001B680133034A136000BFBD4680BC704707
:100DC000180000201400002080B586B000AF00237A
:100DD000FB7500233B6101214FF08050FFF7AAFA19
:100DE0000120FFF7D1F90120FFF718FA07E04120B1
:100DF000FFF7BEFA0346FB753B6901333B61FB7DA0
:100E0000002B03D13B69174A9342F0D94FF480700D
:100E1000FFF734FAFB7D002B10D10020FFF7FEF91D
:100E20000120FFF71BFA00BF6120FFF7A1FA03467C
:100E3000002BF9D04FF40070FFF720FA0120FFF7E4
:100E40004BFAFFF779FD7F23BB60FF23FB60002394
:100E50007B603B1D1846FFF7EDFCFB7D18461837FD
:100E6000BD4680BD3F8AF70180B588B000AF4FF422
:100E70000030FFF75FFC4FF40033BB6100233B778A
:100E800008237B770123BB7707F118031846FFF788
:100E9000DFFB4FF4C060FFF75BFC29233B750123A8
:100EA0007B750223BB750123FB7507F114031846FC
:100EB000FFF760FC4FF08033BB603B1D1A464FF4D8
:100EC00080710020FFF772FD4FF00062FF214FF4A8
:100ED0008070FFF753FE01214FF48050FFF776FE3C
:100EE00001214FF48070FFF7FDFD074B4FF40032F6
:100EF0005A61064A054BDB68DBB263F4C073D3600A
:100F000000BF2037BD4680BD003C014000280040A6
:100F100080B500AFFFF71AFF00BF164B1B689B0997
:100F2000154AA2FB03239B091846FFF7EDFE034673
:100F3000002BF2D109E0114A104B5B6983F00103E9
:100F400053614FF47A7000F049F80D4B1B6903F4BC
:100F50000043002BEFD140F6B83000F03FF8FFF728
:100F600033FF03461A46074B1A70FFF77DFF00BF99
:100F700080BD00BF00000020632D3E050010024030
:100F8000000C02402000002080B485B000AF7860E3
:100F9000104B1A68104B1B689A420BD20D4B1A6803
:100FA0007B681344FB6000BF0A4B1A68FB689A42D7
:100FB000FAD30AE0084B1A687B681344FB6000BF51
:100FC000054B1A68FB689A42FAD300BF1437BD4636
:100FD00080BC7047180000201400002080B582B04B
:100FE00000AF78607B68C82202FB03F31846FFF766
:100FF000CBFF00BF0837BD4680BD00BF80B400AF47
:101000000E4B4FF400325A610D4A0D4BDB68DBB2D8
:1010100063F4C073D3600B4B1B680133094A136040
:10102000094B1B78002B05D0084A084B5B6983F0FD
:101030000103536100BFBD4680BC7047003C0140C6
:10104000002800401C00002020000020001002406A
:10105000007A030A000000000000000001020304FF
:081060000607080900000080EA
:0400000508000000EF
:00000001FF
